:100000000C942A000C9447000C9447000C94470071
:100010000C9420130C9456120C9447000C94F3107B
:100020000C9447000C945A0F0C94FB0D0C949B0CF1
:100030000C9447000C9447000C9447000C94470024
:100040000C9447000C9447000C9447000C94470014
:100050000C94470011241FBECFE5D8E0DEBFCDBF12
:1000600010E0A0E6B0E0E2EDF7E202C005900D92EC
:10007000A83CB107D9F721E0A8ECB0E001C01D927F
:10008000A833B207E1F70E9404050C94E7130C941F
:100090000000CF9360E081E00E941B02C82F60E067
:1000A00081E00E941B028111FACF2FEF89EF90E0CF
:1000B000215080409040E1F700C000008C2FCF918C
:1000C000089540E063E080E00E946D010895CF93C1
:1000D000C4E04FEF63E080E00E946D012FEF80E706
:1000E00092E0215080409040E1F700C0000040E0E5
:1000F00063E080E00E946D012FEF81EE94E02150DB
:1001000080409040E1F700C00000C15011F7CF914E
:1001100008954FEF63E080E00E946D018FE19EE45F
:100120000197F1F700C0000040E063E080E00E942A
:100130006D0108954FEF63E080E00E946D012FEFA5
:1001400081EE94E0215080409040E1F700C0000033
:1001500040E063E080E00E946D012FEF80E792E0D5
:10016000215080409040E1F700C000004FEF63E075
:1001700080E00E946D012FEF81EE94E021508040DD
:100180009040E1F700C0000040E063E080E00E94A2
:100190006D012FEF80E792E0215080409040E1F721
:1001A00000C000000895442321F04F3F09F44BC0E4
:1001B00008956830C0F5813091F028F08230D9F090
:1001C000833029F108952AB381E090E002C0880FBE
:1001D000991F6A95E2F7809582238ABB089527B319
:1001E00081E090E002C0880F991F6A95E2F7809540
:1001F000822387BB089524B381E090E002C0880F7A
:10020000991F6A95E2F78095822384BB089521B3F4
:1002100081E090E002C0880F991F6A95E2F780950F
:10022000822381BB0895813041F028F0823039F07B
:10023000833039F008951ABA089517BA089514BA98
:10024000089511BA08956830A0F5813089F028F03A
:100250008230C9F0833011F108952AB381E090E033
:1002600002C0880F991F6A95E2F7822B8ABB089516
:1002700027B381E090E002C0880F991F6A95E2F7EA
:10028000822B87BB089524B381E090E002C0880FE1
:10029000991F6A95E2F7822B84BB089521B381E010
:1002A00090E002C0880F991F6A95E2F7822B81BB0C
:1002B0000895813049F028F0823049F0833051F0C0
:1002C00008958FEF8ABB08958FEF87BB08958FEF56
:1002D00084BB08958FEF81BB0895CF93DF93C82F20
:1002E000D62F442321F04F3F09F452C0A1C06830FB
:1002F000D8F54FEF0E94D300C13091F028F0C23002
:10030000D9F0C33029F194C02BB381E090E002C052
:10031000880F991FDA95E2F7809582238BBB88C0FE
:1003200028B381E090E002C0880F991FDA95E2F7C8
:100330008095822388BB7CC025B381E090E002C019
:10034000880F991FDA95E2F78095822385BB70C0EC
:1003500022B381E090E002C0880F991FDA95E2F79E
:100360008095822382BB64C04FEF68E00E94D30077
:10037000C13041F028F0C23039F0C33039F058C0F4
:100380001BBA56C018BA54C015BA52C012BA50C0DF
:100390006830B8F54FEF0E94D300C13089F028F0E3
:1003A000C230C9F0C33011F143C02BB381E090E0FB
:1003B00002C0880F991FDA95E2F7822B8BBB38C0F9
:1003C00028B381E090E002C0880F991FDA95E2F728
:1003D000822B88BB2DC025B381E090E002C0880F3E
:1003E000991FDA95E2F7822B85BB22C022B381E008
:1003F00090E002C0880F991FDA95E2F7822B82BB4A
:1004000017C04FEF68E00E94D300C13049F028F0D8
:10041000C23049F0C33051F00BC08FEF8BBB08C026
:100420008FEF88BB05C08FEF85BB02C08FEF82BB0B
:10043000DF91CF910895CF93DF93C82FD62F6830E7
:1004400078F540E00E94D300C13079F028F0C23046
:10045000A9F0C330E1F038C089B390E002C09595AF
:100460008795DA95E2F7817032C086B390E002C0DA
:1004700095958795DA95E2F7817029C083B390E06E
:1004800002C095958795DA95E2F7817020C080B318
:1004900090E002C095958795DA95E2F7817017C0D4
:1004A00040E068E00E94D300C13041F028F0C23043
:1004B00039F0C33039F00AC089B309C086B307C028
:1004C00083B305C080B303C080E001C080E0DF914A
:1004D000CF910895CF93DF93C82FD62F6830B8F50A
:1004E00040E00E94D300C13089F028F0C230C9F04A
:1004F000C33011F143C02BB381E090E002C0880FFC
:10050000991FDA95E2F7822B8BBB38C028B381E0C4
:1005100090E002C0880F991FDA95E2F7822B88BB22
:100520002DC025B381E090E002C0880F991FDA95B5
:10053000E2F7822B85BB22C022B381E090E002C0AB
:10054000880F991FDA95E2F7822B82BB17C040E033
:1005500068E00E94D300C13049F028F0C23049F071
:10056000C33051F00BC08FEF8BBB08C08FEF88BB3F
:1005700005C08FEF85BB02C08FEF82BBDF91CF91AB
:1005800008954FEF60E082E00E94D3004FEF61E0FA
:1005900082E00E94D3004FEF62E082E00E94D3002D
:1005A0004FEF63E082E00E94D30040E064E082E02D
:1005B0000E94D30040E065E082E00E94D30040E06A
:1005C00066E082E00E94D30040E067E082E00E94A3
:1005D000D3004FEF60E082E00E946D014FEF61E0D9
:1005E00082E00E946D014FEF62E082E00E946D01A7
:1005F0004FEF63E082E00E946D0164E082E00E94C0
:100600006A0265E082E00E946A0266E082E00E947F
:100610006A0267E082E00E946A020895DF92EF9228
:10062000FF920F931F93CF93DF930F2EF0E6EF2EE1
:10063000F0E0FF2EF02DD12CD0E040E06D2F82E0D5
:100640000E946D018701C4E06C2F82E00E941B02B2
:10065000811108C06C2F82E00E941B028823D1F315
:10066000F801D080CF5F0C5F1F4FC83069F74FEFA4
:100670006D2F82E00E946D01DF5FFFEFEF1AFF0A2E
:10068000D430D9F68D2DDF91CF911F910F91FF902E
:10069000EF90DF900895CF93C82F40E061E081E0B4
:1006A0000E946D0140E062E081E00E946D0140E047
:1006B00063E081E00E946D018BB39C2F907F8F706F
:1006C000892B8BBB4FEF63E081E00E946D018FE9C6
:1006D0009FE00197F1F700C0000040E063E081E097
:1006E0000E946D012BB330E1C39FC0011124922FF2
:1006F0009F70892B8BBB4FEF63E081E00E946D01FF
:100700008FE99FE00197F1F700C0000040E063E04F
:1007100081E00E946D018FE19EE40197F1F700C036
:100720000000CF9108954FEF61E081E00E94D30077
:100730004FEF62E081E00E94D3004FEF63E081E081
:100740000E94D3004FEF64E080E00E94D3004FEF9F
:1007500065E080E00E94D3004FEF66E080E00E94F9
:10076000D3004FEF67E080E00E94D3002FEF81EECF
:1007700094E0215080409040E1F700C0000083E306
:100780000E944B0382E30E944B0388E20E944B03CA
:1007900081E00E944B0382E00E944B0386E00E94AE
:1007A0004B038CE00E944B030895CF93C82F4FEF6B
:1007B00061E081E00E946D0140E062E081E00E9422
:1007C0006D0140E063E081E00E946D018BB39C2FDE
:1007D000907F8F70892B8BBB4FEF63E081E00E948D
:1007E0006D018FE99FE00197F1F700C0000040E044
:1007F00063E081E00E946D012BB330E1C39FC00133
:100800001124922F9F70892B8BBB4FEF63E081E007
:100810000E946D018FE99FE00197F1F700C0000091
:1008200040E063E081E00E946D01CF9108950F9355
:100830001F93CF93FC018081882359F08F01C0E082
:100840000E94D503CF5FF801EC0FF11D808181116B
:10085000F7CFCF911F910F9108952F923F924F9212
:100860005F926F927F928F929F92AF92BF92CF9240
:10087000DF92EF92FF920F931F93CF93DF9300D0FD
:1008800000D01F92CDB7DEB72B013C01672B682B40
:10089000692B21F480E30E94D50385C0812C912C23
:1008A00054018394C12CD12C7601CC0CDD1CEE1CA0
:1008B000FF1CD701C601880F991FAA1FBB1F880FF5
:1008C000991FAA1FBB1FC80ED91EEA1EFB1EC3011B
:1008D000B2012AE030E040E050E00E949713C60EDB
:1008E000D71EE81EF91EC114D104E104F10491F4ED
:1008F000880C991CAA1CBB1CD501C401880F991F28
:10090000AA1FBB1F880F991FAA1FBB1F880E991E05
:10091000AA1EBB1EC301B2012AE030E040E050E055
:100920000E94971329013A01232B242B252B09F030
:10093000BCCFC114D104E104F104A9F1412C512C24
:100940003201282C9982AA82BB82312CC701B601C0
:100950002AE030E040E050E00E949713022F132F6E
:100960004D835C8380E3860F0E94D503C02ED12E79
:10097000ED80FC80C114D104E104F10479F48AE033
:1009800088169104A104B10448F0C22CD980EA80F1
:10099000FB8044244394512C612C732C4C145D0433
:1009A0006E047F0499F60F900F900F900F900F90A8
:1009B000DF91CF911F910F91FF90EF90DF90CF903B
:1009C000BF90AF909F908F907F906F905F904F906F
:1009D0003F902F900895CF93DF9300D0CDB7DEB72F
:1009E00090E8998390EC9A83FE01E80FF11D8181D4
:1009F000860F0E944B030F900F90DF91CF910895C7
:100A000081E00E944B030895CF93DF93CDB7DEB70B
:100A1000E4970FB6F894DEBF0FBECDBF0E94C102AF
:100A20000E9493038EE0EAE9F0E0DE011196019066
:100A30000D928A95E1F787E0E8EAF0E0DE011F9683
:100A400001900D928A95E1F787E0EFEAF0E0DE0190
:100A5000569601900D928A95E1F70E94A40B68EEDC
:100A600073E080E090E00E94B00B86E291E00E948B
:100A70003D0B87E0E6EBF0E0DE015D9601900D9224
:100A80008A95E1F70E945E0E68EE73E080E090E0E8
:100A90000E946A0E0E94650E80E091E00E947B0B2E
:100AA0008BE0EDEBF0E0DE01949601900D928A95DB
:100AB000E1F70E945F1168EE73E080E090E00E9431
:100AC0006B1160E080E00E94EB04CE0101960E9471
:100AD0001704212C312C21E030E03CAB2BAB18AAC1
:100AE0001FA66894442441F8512C88248394912CA7
:100AF0001AAA19AA66246394712CA12CB12C00E0C7
:100B000010E00F2EF6E2CF2EF1E0DF2EF02D0F2EAB
:100B1000F0E0EF2EF1E0FF2EF02D0E940E0390E0AA
:100B20009C01215431092430310510F05C0101C0D1
:100B30008C010234110591F124F40134110551F0B6
:100B4000ECCF0334110509F48DC20434110509F406
:100B50003BC4E3CF8091CE009091CF00892BE9F682
:100B60000E94890031E03093CE001092CF001092A5
:100B7000CD001092CC001092CB001092CA001092BF
:100B8000C9001092C8000E94000560E080E00E9449
:100B9000EB04CE010F960E941704BFCF8091CA00CC
:100BA0009091CB00892BE9F40E9489001092CF002C
:100BB0001092CE001092CD001092CC0081E0809374
:100BC000CA001092CB001092C9001092C8000E9477
:100BD000000560E080E00E94EB04CE0146960E9492
:100BE00017040E9469118091D2009091D300892B43
:100BF00091F48091720090917300029761F4C501A5
:100C0000C0970A9740F40E948900B50160537109AA
:100C1000C6010E94430B93E2A916B10409F0CCC0AF
:100C20000E9489008091D0009091D100E6E2F1E02D
:100C3000219131911216130614F481E090E0A1E0A5
:100C4000E233FA07A9F79093D1008093D000892B63
:100C500009F4A9C0BFEF6B1A7B0A60FC9DC0F601C6
:100C600080819181FC01EE0FFF1F880F991F880F73
:100C7000991F880F991F8E0F9F1FD6011296ED9115
:100C8000FC911397E80FF91F18962D913C91199735
:100C9000C901880F991F220F331F220F331F220F04
:100CA000331F280F391F1A968D919C911B97820F25
:100CB000931F14962D913C911597A901440F551F30
:100CC000220F331F220F331F220F331F240F351F14
:100CD00016966D917C911797260F371F6CE370E085
:100CE0000E948313260F371F982E492F8093F200FE
:100CF0009093F300C9016CE370E00E948313E60F48
:100D0000F71FE436F1052CF4F093F700E093F600BA
:100D100006C0E3E6F0E0F093F700E093F600C901C7
:100D20006CE370E00E9483139093F5008093F400CD
:100D30008091F6009091F7006AE070E00E948313C2
:100D4000D60111967C936E9313969C938E93129773
:100D50008091F4009091F5006AE070E00E948313A6
:100D6000F6017583648397838683892D942F6AE0C7
:100D700070E00E94831371876087938782870E9447
:100D8000AB0BF1E0F093D2001092D30022E020935D
:100D9000720010927300F3C00E94AE0B10927300A9
:100DA000109272004CC032E03093720010927300C7
:100DB00066246394712CE3C08AE2A816B10461F43E
:100DC0000E9489008091D2009091D300892B89F5EF
:100DD000C6010E945F0B2DC00E944900882349F183
:100DE0000E948900E6E0F0E0D6011D96FC93EE93A8
:100DF0001C971092D3001092D20011961C921E9252
:100E000013961C921E92129715961C921E9214977E
:100E100017961C921E92169719961C921E9218975E
:100E20001B961C921E921A970E94AE0B6624639426
:100E3000712C80917200909173000097C9F40E9408
:100E400000058091D0009091D100892B11F40E946F
:100E50006100FFEF21EE34E0F15020403040E1F737
:100E600000C0000081E0809372001092730087C080
:100E7000019709F084C060E080E00E94EB04CE019D
:100E800046960E94170469E081E00E94EB0488E620
:100E90000E94D5036CE081E00E94EB048DE60E9485
:100EA000D5036FE081E00E94EB0483E70E94D50345
:100EB00067E081E00E94EB04D6016D917C91072EE2
:100EC000000C880B990B0E942D0468E081E00E94C1
:100ED000EB04F60162817381072E000C880B990BDD
:100EE0000E942D046AE081E00E94EB04D601149672
:100EF0006D917C911597072E000C880B990B0E9421
:100F00002D046BE081E00E94EB04F601668177819D
:100F1000072E000C880B990B0E942D046DE081E0D8
:100F20000E94EB04D60118966D917C911997072EBB
:100F3000000C880B990B0E942D046EE081E00E944A
:100F4000EB04F60162857385072E000C880B990B64
:100F50000E942D048091D0009091D100892B11F432
:100F60000E946700FFEF21EE34E0F1502040304056
:100F7000E1F700C00000109273001092720060E070
:100F800080E00E94EB04CE0146960E94170469E0BF
:100F900081E00E94EB0488E60E94D5036CE081E0CA
:100FA0000E94EB048DE60E94D5036FE081E00E9471
:100FB000EB0483E70E94D50367E081E00E94EB0425
:100FC000D6016D917C91072E000C880B990B0E9425
:100FD0002D0468E081E00E94EB04F60162817381D8
:100FE000072E000C880B990B0E942D046AE081E00B
:100FF0000E94EB04D60114966D917C911597072EF3
:10100000000C880B990B0E942D046BE081E00E947C
:10101000EB04F60166817781072E000C880B990B93
:101020000E942D046DE081E00E94EB04D601189629
:101030006D917C911997072E000C880B990B0E94DB
:101040002D046EE081E00E94EB04F6016285738559
:10105000072E000C880B990B0E942D048824839482
:10106000912C5BCD8091CC009091CD00892BC9F55E
:101070000E9489001092CF001092CE00F1E0F09310
:10108000CC001092CD001092CB001092CA001092AA
:10109000C9001092C8000E94000560E080E00E9434
:1010A000EB04CE014D960E9417046AE081E00E9495
:1010B000EB048AE30E94D5036DE081E00E94EB041B
:1010C0008AE30E94D5036AE080E00E94EB048FE28D
:1010D0000E94D5036DE080E00E94EB048FE20E9445
:1010E000D5030E94AE0B0E9469118091700090910F
:1010F0007100892B61F4C501C0970A9740F40E94E2
:101100008900B50160537109C7010E94810B23E278
:10111000A216B104F9F40E94890089A99AA901963E
:101120009AAB89AB80FD0FC091E090937000109254
:1011300071008BE090E0D70159969C938E9358975D
:101140000E94650E6AC010927100109270000E9499
:10115000680E63C0BAE2AB16B104C1F40E94890004
:101160008091700090917100892B21F4C7010E9439
:10117000920B53C0EBA9FCA93196FCABEBAB1F0162
:10118000F1E02F2621E02222332447C00E944900AB
:10119000882309F442C00E9489008FEF9FEFD70196
:1011A00059969C938E9358971092710010927000EC
:1011B00011961C921E9213961C921E9212971596CF
:1011C0001C921E92149717961C921E9216971996AF
:1011D0001C921E9218971B961C921E921A971D968F
:1011E0001C921E921C971F961C921E921E9751963F
:1011F0001C921E92509753961C921E92529755968F
:101200001C921E92549757961C921E9256970E94BB
:10121000680EE1E0F0E0FAABE9AB21143104D9F05B
:1012200060E081E00E94EB0480E20E94D503D701D8
:101230001E968D919C911F97EFA5F8A9E817F907C5
:1012400091F00E949A00D7011E960D90BC91A02D9E
:10125000B8ABAFA70AC060E081E00E94EB048DE468
:101260000E94D50302C098AB8FA768E080E00E947F
:10127000EB04F70160817181072E000C880B990B3C
:101280000E942D0469E080E00E94EB04D7011296D1
:101290006D917C911397072E000C880B990B0E947F
:1012A0002D046BE080E00E94EB04F70164817581FE
:1012B000072E000C880B990B0E942D046CE080E037
:1012C0000E94EB04D70116966D917C911797072E1B
:1012D000000C880B990B0E942D046EE080E00E94A8
:1012E000EB04F70160857185072E000C880B990BC4
:1012F0000E942D046FE080E00E94EB04D7011A9653
:101300006D917C911B97072E000C880B990B0E9406
:101310002D0468E081E00E94EB04F7016485758587
:10132000072E000C880B990B0E942D0469E081E0C8
:101330000E94EB04D7011E966D917C911F97072E9A
:10134000000C880B990B0E942D046BE081E00E9439
:10135000EB04F70160897189072E000C880B990B4B
:101360000E942D046CE081E00E94EB04D7015296AC
:101370006D917C915397072E000C880B990B0E945E
:101380002D046EE081E00E94EB04F7016489758909
:10139000072E000C880B990B0E942D046FE081E052
:1013A0000E94EB04D70156966D917C915797072EBA
:1013B000000C880B990B0E942D0488248394912C97
:1013C00066246394712CA9CB8091C8009091C900C8
:1013D000892BE9F40E9489001092CF001092CE0070
:1013E0001092CD001092CC001092CB001092CA0047
:1013F000B1E0B093C8001092C9000E94000560E0FF
:1014000080E00E94EB04CE0184960E9417040E94A3
:10141000AE0BE3E2AE16B10469F40E948900FFEF5F
:101420008F1A9F0A80FC03C00E94661121C10E948E
:10143000691127C00E944900882301F10E94890098
:101440001092F1001092F0001092EF001092EE0056
:101450001092ED001092EC001092EB001092EA0056
:101460001092E9001092E8001092E7001092E60056
:101470000E94691188248394912CFAC0411451046C
:1014800079F40E9400052FEF37E883E121503040C6
:101490008040E1F700C0000044244394512C7AC0FE
:1014A00091E04916510409F075C060E080E00E94A7
:1014B000EB04CE0184960E9417046AE081E00E944A
:1014C000EB048AE30E94D5036DE081E00E94EB0407
:1014D0008AE30E94D50368E081E00E94EB046091FA
:1014E000E6007091E700072E000C880B990B0E9414
:1014F0002D0469E081E00E94EB046091E8007091A6
:10150000E900072E000C880B990B0E942D046BE05C
:1015100081E00E94EB046091EA007091EB00072EDD
:10152000000C880B990B0E942D046CE081E00E9456
:10153000EB046091EC007091ED00072E000C880B1D
:10154000990B0E942D046EE081E00E94EB046091F3
:10155000EE007091EF00072E000C880B990B0E9493
:101560002D046FE081E00E94EB046091F000709127
:10157000F100072E000C880B990B0E942D04AFEF91
:10158000B7E8E3E1A150B040E040E1F700C000005F
:10159000412C512C60E080E00E94EB04CE01849647
:1015A0000E9417046AE081E00E94EB048AE30E9433
:1015B000D5036DE081E00E94EB048AE30E94D5032D
:1015C00068E081E00E94EB046091E6007091E70022
:1015D000072E000C880B990B0E942D0469E081E016
:1015E0000E94EB046091E8007091E900072E000C66
:1015F000880B990B0E942D046BE081E00E94EB04A4
:101600006091EA007091EB00072E000C880B990B9B
:101610000E942D046CE081E00E94EB046091EC00DC
:101620007091ED00072E000C880B990B0E942D0481
:101630006EE081E00E94EB046091EE007091EF009B
:10164000072E000C880B990B0E942D046FE081E09F
:101650000E94EB046091F0007091F100072E000CE5
:10166000880B990B0E942D0466246394712C55CA33
:101670006894442441F8512C8DCF26E030E0FC01E1
:10168000358724870895DC011C964D915C911D9748
:10169000141615069CF4FC010A96228133812193CD
:1016A0003193E817F907C9F7415051091D965C932A
:1016B0004E931C971B967C936E931A970895FC018A
:1016C0004485558546305105ACF43A96BC013291BB
:1016D000229133832283E617F707C9F7FA01EE0F49
:1016E000FF1FE80FF91F118210824F5F5F4FFC014F
:1016F0005587448708952FEF3FEFFC01318F208FEE
:101700000895FC01208D318D2B30310554F42F5F6D
:101710003F4F318F208F220F331FE20FF31F718352
:1017200060830895FC01208D318D332364F0F9012D
:10173000EE0FFF1FE80FF91F1182108221503109AF
:10174000FC01318F208F089580E88FBF89B7847D99
:10175000816089BF089585E083BF089513BE089511
:101760004F925F926F927F928F929F92AF92BF92B1
:10177000CF92DF92EF92FF920F931F93CF93DF935D
:10178000CDB7DEB72A970FB6F894DEBF0FBECDBF38
:101790009B01AC01A8EEB3E00E94B9136D837E8378
:1017A0008F8398872B013C01689415F87694679491
:1017B000579447941694D1F721E0421652066104DB
:1017C000710490F480E091E0A0E0B0E08419950904
:1017D000A609B7098093340190933501A09336018F
:1017E000B093370182BF90C00F2EFEE78F2E912C51
:1017F000A12CB12CF02D11E0C12CD12C7601D39469
:1018000000E0C301B201A7019601281939094A096C
:101810005B0929833A834B835C830E949713E22FF1
:101820003A874987F52FA22FB0E029813A814B8171
:101830005C810E94B9134616570668067906E1F4E2
:10184000E09396003A85309397004985409398003D
:10185000F09399008092340190923501A092360164
:10186000B092370180921A0190921B01A0921C0144
:10187000B0921D0182BE102F51E0851A9108A10877
:10188000B1088FEF88169806A806B80609F0B9CFF8
:101890001123D1F18D819E81AF81B885072E7EE025
:1018A000B695A795979587957A95D1F7702D409124
:1018B0009600509197006091980070919900840F64
:1018C000951FA61FB71F8093960090939700A09333
:1018D0009800B093990080E091E0A0E0B0E0841916
:1018E0009109A109B1098093340190933501A09326
:1018F0003601B093370110921A0110921B01109219
:101900001C0110921D0182BF2A960FB6F894DEBF0B
:101910000FBECDBFDF91CF911F910F91FF90EF9040
:10192000DF90CF90BF90AF909F908F907F906F90FF
:101930005F904F9008951F920F920FB60F9211244F
:101940002F933F934F935F936F937F938F939F93C7
:10195000AF93BF93EF93FF938091E4009091E500E4
:1019600001969093E5008093E40040919600509199
:101970009700609198007091990041305105610580
:10198000710559F4019709F025C11092E5001092F4
:10199000E4008091340182BF1DC18130910521F4A2
:1019A00080911A0182BF16C1092E000CAA0BBB0B35
:1019B000481759076A077B0709F00CC1E6E2F1E016
:1019C0008285938501979387828799230CF0D0C0F5
:1019D000809126019091270118161906E4F0809154
:1019E00028019091290118161906ACF080912A015E
:1019F00090912B011816190674F080912C0190918A
:101A00002D01181619063CF080912E0190912F019E
:101A10001816190664F4E6E2F1E089E090E0938795
:101A200082878085918501979187808715C0E6E23E
:101A3000F1E01386128686E090E095878487109205
:101A4000D3001092D2001092730010927200109284
:101A5000D1001092D00013BE80912E0190912F01E1
:101A600099230CF085C080912601909127011816CA
:101A700019060CF49CC08091280190912901181638
:101A800019060CF486C080912A0190912B0118163A
:101A900019060CF47EC080912C0190912D0118162E
:101AA00019060CF476C010922F0110922E01992382
:101AB0000CF05EC080912A0190912B011816190636
:101AC0007CF4E6E2F1E089E090E09783868384810C
:101AD000958101979583848399230CF049C008C0B0
:101AE00010922D0110922C0199230CF041C06DC071
:101AF0008091260190912701181619063CF08091DB
:101B00002801909129011816190674F4E6E2F1E013
:101B100085E090E09583848382819381019793830C
:101B2000828399232CF507C010922B0110922A0171
:101B30009923F4F419C08091260190912701181679
:101B4000190694F429E030E030932901209328010C
:101B500001972AF0909327018093260109C01092E3
:101B600027011092260104C0109229011092280129
:101B70001092E5001092E4008091340182BF2AC0E7
:101B80008091280190912901181619060CF499CF1B
:101B900091CFE6E2F1E085E090E091878087868151
:101BA0009781019797838683992314F7E9CFE6E21B
:101BB000F1E085E090E091878087868197810197A9
:101BC000978386839923A4F67CCF809128019091F6
:101BD0002901AACFFF91EF91BF91AF919F918F9172
:101BE0007F916F915F914F913F912F910F900FBE19
:101BF0000F901F9018951F920F920FB60F921124FD
:101C00004F935F936F937F938F939F93AF93BF9304
:101C10008091E2009091E30001969093E30080931D
:101C2000E200409196005091970060919800709169
:101C30009900413051056105710599F4019789F5C5
:101C40008091E0009091E10001969093E1008093F3
:101C5000E0001092E3001092E200809134018CBF0A
:101C600020C08130910521F480911A018CBF19C0E8
:101C7000092E000CAA0BBB0B481759076A077B07F4
:101C800081F48091E0009091E10001969093E10051
:101C90008093E0001092E3001092E2008091340102
:101CA0008CBFBF91AF919F918F917F916F915F9109
:101CB0004F910F900FBE0F901F90189580E88FBF27
:101CC00089B7837C846089BF089585E08EBD0895BF
:101CD0001EBC08954F925F926F927F928F929F9257
:101CE000AF92BF92CF92DF92EF92FF920F931F932A
:101CF000CF93DF93CDB7DEB72A970FB6F894DEBF48
:101D00000FBECDBF9B01AC01A8EEB3E00E94B9139A
:101D10006D837E838F8398872B013C01689415F82F
:101D200076946794579447941694D1F721E042161D
:101D300051046206710498F48FEF9FEFA0E0B0E0C9
:101D400084199509A609B7098093FC009093FD00BA
:101D5000A093FE00B093FF009DBD8CBD94C00F2EDC
:101D6000812CF3E89F2EA12CB12CF02D11E0C12C79
:101D7000D12C7601E39400E0C301B201A7019601E2
:101D8000281939094A095B0929833A834B835C8303
:101D90000E949713E22F3A874987F52FA22FB0E0D0
:101DA00029813A814B815C810E94B91346165706FE
:101DB00068067906E9F4E09392003A85309393003F
:101DC000498540939400F09395008092FC00909296
:101DD000FD00A092FE00B092FF008092F800909269
:101DE000F900A092FA00B092FB009DBC8CBC102FB1
:101DF00051E0851A9108A108B1088FEF881698065E
:101E0000A806B80609F0B8CF1123E9F18D819E81AB
:101E1000AF81B885072E76E1B695A79597958795FA
:101E20007A95D1F7702D4091920050919300609176
:101E3000940070919500840F951FA61FB71F809383
:101E4000920090939300A0939400B0939500662421
:101E5000772480E090E0A1E0B0E084199509A6091C
:101E6000B7098093FC009093FD00A093FE00B0930F
:101E7000FF001092F8001092F9001092FA001092F0
:101E8000FB009DBD8CBD2A960FB6F894DEBF0FBE39
:101E9000CDBFDF91CF911F910F91FF90EF90DF9019
:101EA000CF90BF90AF909F908F907F906F905F90FA
:101EB0004F9008951F920F920FB60F9211248F9298
:101EC0009F92AF92BF92CF92DF92EF92FF920F93C9
:101ED0001F932F933F934F935F936F937F938F93B2
:101EE0009F93AF93BF93CF93DF93EF93FF93C091F3
:101EF0000C01D0910D01C230D10531F00F2EF9E067
:101F0000CF2ED12CF02D05C00F2EF3E0CF2ED12CEB
:101F1000F02DE0E0F1E00081118124813581E6803F
:101F2000F780F901EE0FFF1FC901880F991F880F75
:101F3000991F880F991FE80FF91FEE0DFF1DEE0F77
:101F4000FF1FEC58FF4FA080B180C5016AE070E030
:101F50000E948313FB010617170739F4C5016AE0D5
:101F600070E00E948313AC0102C049E050E02130D0
:101F7000310519F069E070E002C062E070E0809124
:101F8000DE009091DF0001969093DF008093DE00E9
:101F90008090920090909300A0909400B090950053
:101FA000A1E08A169104A104B10409F0E2C00197EE
:101FB00009F0FCC0809116019091170101968A30BA
:101FC00091052CF49093170180931601C7C0A0E0EF
:101FD000B1E057961C921E92569754968D919C9103
:101FE00055970196863091052CF4909315018093B6
:101FF0001401B4C0A0E0B1E055961C921E92549713
:1020000052968D919C91539701968A3091052CF4AC
:102010009093130180931201A1C0A0E0B1E0539608
:102020001C921E92529750968D919C9151970196B9
:10203000863091052CF490931101809310018EC08D
:10204000A0E0B1E051961C921E9250971E968D9181
:102050009C911F970196C816D9062CF090930F01FA
:1020600080930E017BC010920F0110920E012196F9
:10207000C330D1052CF4D0930D01C0930C016EC078
:10208000A0E0B1E01D961C921E921C9712968D91B5
:102090009C9113970196481759072CF090930301D0
:1020A000809302015BC081E090E00E171F0711F0E2
:1020B00080E090E090930301809302010F5F1F4F37
:1020C000E017F1072CF0109301010093000146C0C6
:1020D00010920101109200018FEFE81AF80A6E15B4
:1020E0007F052CF0F0920701E092060137C081E0F5
:1020F00090E02130310511F080E090E090930701ED
:10210000809306012F5F3F4F223031052CF430932E
:1021100005012093040122C0E0E0F1E01582148261
:102120008285938501968A3091052CF490930B015A
:1021300080930A0113C0E0E0F1E0138612868085E7
:10214000918501968A3091052CF490930901809332
:10215000080104C010920901109208011092DF00DA
:102160001092DE008091FC009091FD009DBD8CBD21
:102170001DC08130910539F48091F8009091F900EB
:102180009DBD8CBD13C0092E000CAA0BBB0B88167D
:102190009906AA06BB0651F41092DF001092DE00E9
:1021A0008091FC009091FD009DBD8CBDFF91EF9151
:1021B000DF91CF91BF91AF919F918F917F916F915F
:1021C0005F914F913F912F911F910F91FF90EF9051
:1021D000DF90CF90BF90AF909F908F900F900FBEE9
:1021E0000F901F9018951F920F920FB60F92112407
:1021F0004F935F936F937F938F939F93AF93BF930F
:102200008091DC009091DD0001969093DD00809339
:10221000DC00409192005091930060919400709185
:1022200095004130510561057105B1F40197D1F573
:102230008091DA009091DB0001969093DB0080930F
:10224000DA001092DD001092DC008091FC00909189
:10225000FD009BBD8ABD26C08130910539F4809177
:10226000F8009091F9009BBD8ABD1CC0092E000C9E
:10227000AA0BBB0B481759076A077B0799F4809193
:10228000DA009091DB0001969093DB008093DA00F6
:102290001092DD001092DC008091FC009091FD0016
:1022A0009BBD8ABDBF91AF919F918F917F916F919F
:1022B0005F914F910F900FBE0F901F90189580E87F
:1022C0008FBF89B78771806489BF089587E085BD16
:1022D000089515BC08954F925F926F927F928F92EE
:1022E0009F92AF92BF92CF92DF92EF92FF920F93A5
:1022F0001F93CF93DF93CDB7DEB72A970FB6F8942D
:10230000DEBF0FBECDBF9B01AC01A8EEB3E00E94C3
:10231000B9136D837E838F8398872B013C0168946A
:1023200015F876946794579447941694D1F721E062
:10233000421652066104710490F480E091E0A0E03E
:10234000B0E084199509A609B709809322019093FA
:102350002301A0932401B093250184BD90C00F2ECA
:10236000FEE78F2E912CA12CB12CF02D11E0C12C69
:10237000D12C7601D39400E0C301B201A7019601EC
:10238000281939094A095B0929833A834B835C83FD
:102390000E949713E22F3A874987F52FA22FB0E0CA
:1023A00029813A814B815C810E94B91346165706F8
:1023B00068067906E1F4E0938E003A8530938F0049
:1023C000498540939000F093910080922201909271
:1023D0002301A0922401B092250180921E019092C7
:1023E0001F01A0922001B092210184BC102F51E066
:1023F000851A9108A108B1088FEF88169806A806DB
:10240000B80609F0B9CF1123D1F18D819E81AF813A
:10241000B885072E7EE0B695A795979587957A950E
:10242000D1F7702D40918E0050918F0060919000F7
:1024300070919100840F951FA61FB71F80938E0087
:1024400090938F00A0939000B093910080E091E072
:10245000A0E0B0E084199109A109B109809322019B
:1024600090932301A0932401B093250110921E01A3
:1024700010921F01109220011092210184BD2A9612
:102480000FB6F894DEBF0FBECDBFDF91CF911F9185
:102490000F91FF90EF90DF90CF90BF90AF909F9003
:1024A0008F907F906F905F904F9008951F920F9242
:1024B0000FB60F9211242F933F934F935F936F9317
:1024C0007F938F939F93AF93BF938091D800909108
:1024D000D90001969093D9008093D80040918E0046
:1024E00050918F00609190007091910041305105A2
:1024F0006105710559F4019709F093C01092D90054
:102500001092D8008091220184BD8BC0813091054A
:1025100021F480911E0184BD84C0092E000CAA0BF9
:10252000BB0B481759076A077B0709F07AC08091EF
:10253000F0009091F10001968A3091052CF490936F
:10254000F1008093F00066C01092F1001092F0004C
:102550008091EE009091EF000196863091052CF469
:102560009093EF008093EE0055C01092EF00109210
:10257000EE008091EC009091ED0001968A3091057B
:102580002CF49093ED008093EC0044C01092ED0089
:102590001092EC008091EA009091EB000196863059
:1025A00091052CF49093EB008093EA0033C01092D5
:1025B000EB001092EA008091E8009091E90001960A
:1025C0009093E9008093E8002091740030917500A9
:1025D0002150310928173907ECF41092E9001092C4
:1025E000E8008091E6009091E70001969093E70063
:1025F0008093E6008230910539F484E090E0909376
:1026000075008093740006C0039724F01092E700D1
:102610001092E6001092D9001092D8008091220109
:1026200084BDBF91AF919F918F917F916F915F9189
:102630004F913F912F910F900FBE0F901F901895C3
:102640001F920F920FB60F9211244F935F936F93C7
:102650007F938F939F93AF93BF938091D600909178
:10266000D70001969093D7008093D60040918E00BA
:1026700050918F0060919000709191004130510510
:102680006105710599F4019789F58091D4009091C5
:10269000D50001969093D5008093D4001092D70076
:1026A0001092D6008091220183BD20C08130910517
:1026B00021F480911E0183BD19C0092E000CAA0BC4
:1026C000BB0B481759076A077B0781F48091D40038
:1026D0009091D50001969093D5008093D4001092EC
:1026E000D7001092D6008091220183BDBF91AF9197
:1026F0009F918F917F916F915F914F910F900FBE3E
:102700000F901F90189597FB072E16F4009407D092
:1027100077FD09D00E94C41307FC05D03EF49095C4
:1027200081959F4F0895709561957F4F0895A1E21F
:102730001A2EAA1BBB1BFD010DC0AA1FBB1FEE1F3B
:10274000FF1FA217B307E407F50720F0A21BB30B86
:10275000E40BF50B661F771F881F991F1A9469F702
:1027600060957095809590959B01AC01BD01CF015E
:1027700008950E94D813A59F900DB49F900DA49F1B
:10278000800D911D11240895AA1BBB1B51E107C0A8
:10279000AA1FBB1FA617B70710F0A61BB70B881FF1
:1027A000991F5A95A9F780959095BC01CD01089580
:1027B000A29FB001B39FC001A39F700D811D112482
:1027C000911DB29F700D811D1124911D0895F894E3
:0227D000FFCF39
:1027D2003132334134353642373839432A30234493
:1027E200010002000A001F001C001F001E001F0043
:1027F2001E001F001F001E001F001E001F00010000
:102802000000010000000100000044696769746172
:102812006C20576174636800416C61726D3A0054B8
:10282200696D65723A00436C6F636B3A0053746F63
:082832007077617463683A00DD
:00000001FF
